{
    "abi": [
        {
            "inputs": [
                {
                    "internalType": "address",
                    "name": "_owner",
                    "type": "address"
                }
            ],
            "stateMutability": "nonpayable",
            "type": "constructor"
        },
        {
            "anonymous": false,
            "inputs": [
                {
                    "indexed": true,
                    "internalType": "address",
                    "name": "fromToken",
                    "type": "address"
                },
                {
                    "indexed": true,
                    "internalType": "address",
                    "name": "toToken",
                    "type": "address"
                }
            ],
            "name": "DeleteRoute",
            "type": "event"
        },
        {
            "anonymous": false,
            "inputs": [
                {
                    "indexed": true,
                    "internalType": "address",
                    "name": "_fromToken",
                    "type": "address"
                },
                {
                    "indexed": true,
                    "internalType": "address",
                    "name": "_toToken",
                    "type": "address"
                },
                {
                    "indexed": false,
                    "internalType": "uint256",
                    "name": "_amount",
                    "type": "uint256"
                }
            ],
            "name": "Swap",
            "type": "event"
        },
        {
            "anonymous": false,
            "inputs": [
                {
                    "indexed": true,
                    "internalType": "address",
                    "name": "_newOwner",
                    "type": "address"
                }
            ],
            "name": "UpdateOwner",
            "type": "event"
        },
        {
            "anonymous": false,
            "inputs": [
                {
                    "indexed": true,
                    "internalType": "address",
                    "name": "fromToken",
                    "type": "address"
                },
                {
                    "indexed": true,
                    "internalType": "address",
                    "name": "toToken",
                    "type": "address"
                },
                {
                    "indexed": true,
                    "internalType": "address[]",
                    "name": "poolAddress",
                    "type": "address[]"
                }
            ],
            "name": "UpdateRoute",
            "type": "event"
        },
        {
            "inputs": [
                {
                    "internalType": "address",
                    "name": "_fromToken",
                    "type": "address"
                },
                {
                    "internalType": "address",
                    "name": "_toToken",
                    "type": "address"
                }
            ],
            "name": "deleteRoute",
            "outputs": [],
            "stateMutability": "nonpayable",
            "type": "function"
        },
        {
            "inputs": [],
            "name": "owner",
            "outputs": [
                {
                    "internalType": "address",
                    "name": "",
                    "type": "address"
                }
            ],
            "stateMutability": "view",
            "type": "function"
        },
        {
            "inputs": [
                {
                    "internalType": "address[]",
                    "name": "_tokens",
                    "type": "address[]"
                },
                {
                    "internalType": "address",
                    "name": "_recipient",
                    "type": "address"
                }
            ],
            "name": "rescue",
            "outputs": [],
            "stateMutability": "nonpayable",
            "type": "function"
        },
        {
            "inputs": [
                {
                    "internalType": "address",
                    "name": "_recipient",
                    "type": "address"
                }
            ],
            "name": "rescueETH",
            "outputs": [],
            "stateMutability": "nonpayable",
            "type": "function"
        },
        {
            "inputs": [
                {
                    "internalType": "address",
                    "name": "_fromToken",
                    "type": "address"
                },
                {
                    "internalType": "address",
                    "name": "_toToken",
                    "type": "address"
                }
            ],
            "name": "routeExists",
            "outputs": [
                {
                    "internalType": "bool",
                    "name": "",
                    "type": "bool"
                }
            ],
            "stateMutability": "view",
            "type": "function"
        },
        {
            "inputs": [
                {
                    "internalType": "address",
                    "name": "_fromToken",
                    "type": "address"
                },
                {
                    "internalType": "address",
                    "name": "_toToken",
                    "type": "address"
                },
                {
                    "internalType": "uint256",
                    "name": "_amount",
                    "type": "uint256"
                }
            ],
            "name": "swap",
            "outputs": [
                {
                    "internalType": "uint256",
                    "name": "",
                    "type": "uint256"
                }
            ],
            "stateMutability": "payable",
            "type": "function"
        },
        {
            "inputs": [
                {
                    "internalType": "address",
                    "name": "_newOwner",
                    "type": "address"
                }
            ],
            "name": "updateOwner",
            "outputs": [],
            "stateMutability": "nonpayable",
            "type": "function"
        },
        {
            "inputs": [
                {
                    "internalType": "address",
                    "name": "_from",
                    "type": "address"
                },
                {
                    "internalType": "address",
                    "name": "_to",
                    "type": "address"
                },
                {
                    "internalType": "uint256[]",
                    "name": "_poolType",
                    "type": "uint256[]"
                },
                {
                    "internalType": "address[]",
                    "name": "_poolAddress",
                    "type": "address[]"
                },
                {
                    "internalType": "address[]",
                    "name": "_fromList",
                    "type": "address[]"
                },
                {
                    "internalType": "address[]",
                    "name": "_toList",
                    "type": "address[]"
                }
            ],
            "name": "updateRoute",
            "outputs": [],
            "stateMutability": "nonpayable",
            "type": "function"
        },
        {
            "stateMutability": "payable",
            "type": "receive"
        }
    ],
    "bytecode": {
        "object": "0x60806040523480156200001157600080fd5b506040516200437b3803806200437b8339810160408190526200003491620000af565b60016000556001600160a01b038116620000895760405162461bcd60e51b81526020600482015260126024820152717a65726f206f776e6572206164647265737360701b604482015260640160405180910390fd5b600280546001600160a01b0319166001600160a01b0392909216919091179055620000e1565b600060208284031215620000c257600080fd5b81516001600160a01b0381168114620000da57600080fd5b9392505050565b61428a80620000f16000396000f3fe60806040526004361061007f5760003560e01c806383587de11161004e57806383587de11461014e578063880cdc311461016e5780638da5cb5b1461018e578063df791e50146101c657600080fd5b806304824e701461008b5780631af55e1f146100ad578063802a2b13146100cd5780638304b734146100ed57600080fd5b3661008657005b600080fd5b34801561009757600080fd5b506100ab6100a6366004613b47565b6101e7565b005b3480156100b957600080fd5b506100ab6100c8366004613b64565b6102b8565b3480156100d957600080fd5b506100ab6100e8366004613c7c565b610384565b3480156100f957600080fd5b50610139610108366004613b64565b6001600160a01b03808316600090815260016020818152604080842094861684529390529190200154151592915050565b60405190151581526020015b60405180910390f35b34801561015a57600080fd5b506100ab610169366004613d1e565b61049c565b34801561017a57600080fd5b506100ab610189366004613b47565b61063f565b34801561019a57600080fd5b506002546101ae906001600160a01b031681565b6040516001600160a01b039091168152602001610145565b6101d96101d4366004613deb565b6106b3565b604051908152602001610145565b6002546001600160a01b0316331461021a5760405162461bcd60e51b815260040161021190613e2c565b60405180910390fd5b6000816001600160a01b03164760405160006040518083038185875af1925050503d8060008114610267576040519150601f19603f3d011682016040523d82523d6000602084013e61026c565b606091505b50509050806102b45760405162461bcd60e51b81526020600482015260146024820152732330b4b632b2103a379039b2b7321022ba3432b960611b6044820152606401610211565b5050565b6002546001600160a01b031633146102e25760405162461bcd60e51b815260040161021190613e2c565b6001600160a01b0380831660009081526001602090815260408083209385168352929052908120906103148282613a55565b610322600183016000613a55565b610330600283016000613a55565b61033e600383016000613a55565b5050806001600160a01b0316826001600160a01b03167f40ef60932dde062b603b1e38542f2fe5d8fc57dee4102a1ef828296054b8b6e160405160405180910390a35050565b6002546001600160a01b031633146103ae5760405162461bcd60e51b815260040161021190613e2c565b60005b825181101561049757610485828483815181106103d0576103d0613e4e565b60209081029190910101516040516370a0823160e01b81523060048201526001600160a01b03909116906370a082319060240160206040518083038186803b15801561041b57600080fd5b505afa15801561042f573d6000803e3d6000fd5b505050506040513d601f19601f820116820180604052508101906104539190613e64565b85848151811061046557610465613e4e565b60200260200101516001600160a01b0316610b279092919063ffffffff16565b8061048f81613e93565b9150506103b1565b505050565b6002546001600160a01b031633146104c65760405162461bcd60e51b815260040161021190613e2c565b6001600160a01b038087166000908152600160208181526040808420948a1684529390529190200154156105335760405162461bcd60e51b8152602060048201526014602482015273526f75746520616c72656164792065786973747360601b6044820152606401610211565b604080516080810182528581526020808201869052818301859052606082018490526001600160a01b03808a16600090815260018352848120918a16815290825292909220815180519293919261058d9284920190613a76565b5060208281015180516105a69260018501920190613abd565b50604082015180516105c2916002840191602090910190613abd565b50606082015180516105de916003840191602090910190613abd565b50506040516105ef91508490613eae565b6040518091039020856001600160a01b0316876001600160a01b03167f7e9c0b06d5e1ebef3a831c8d64a90bf99a8b6208164c66d8f5f2e8e8646ff3d360405160405180910390a4505050505050565b6002546001600160a01b031633146106695760405162461bcd60e51b815260040161021190613e2c565b600280546001600160a01b0319166001600160a01b0383169081179091556040517f84022644ce39de434e8f39c4398a3628815893104188274c37205d41c2d5096790600090a250565b60006106bd610b8a565b6001600160a01b0380851660009081526001602081815260408084209488168452939052919020908101546107285760405162461bcd60e51b8152602060048201526011602482015270726f75746520756e617661696c61626c6560781b6044820152606401610211565b34156107d05782341461076f5760405162461bcd60e51b815260206004820152600f60248201526e0c2dadeeadce840dad2e6dac2e8c6d608b1b6044820152606401610211565b6001600160a01b038516600080516020614235833981519152146107cb5760405162461bcd60e51b81526020600482015260136024820152720cce4deda40e8ded6cadc40dad2e6dac2e8c6d606b1b6044820152606401610211565b6107e5565b6107e56001600160a01b038616333086610be4565b60008060008060005b60018601548110156109f85785600001818154811061080f5761080f613e4e565b9060005260206000200154945085600101818154811061083157610831613e4e565b6000918252602090912001546002870180546001600160a01b039092169550908290811061086157610861613e4e565b6000918252602090912001546003870180546001600160a01b039092169450908290811061089157610891613e4e565b6000918252602090912001546001600160a01b03169150846108c0576108b983838a87610c22565b97506109e6565b84600114156108d4576108b983838a610ec2565b84600214156108e9576108b983838a87611150565b84600314156108fe576108b983838a87611552565b8460041415610913576108b983838a876118e1565b8460051415610928576108b983838a87611c54565b846006141561093d576108b983838a87612048565b8460071415610952576108b983838a876123da565b8460081415610967576108b983838a876126cb565b846009141561097c576108b983838a876129cc565b84600a1415610991576108b983838a87612bf4565b84600b14156109a6576108b983838a87612d4d565b60405162461bcd60e51b8152602060048201526015602482015274756e737570706f7274656420706f6f6c207479706560581b6044820152606401610211565b806109f081613e93565b9150506107ee565b506001600160a01b0388166000805160206142358339815191521415610aad57604051600090339089908381818185875af1925050503d8060008114610a5a576040519150601f19603f3d011682016040523d82523d6000602084013e610a5f565b606091505b5050905080610aa75760405162461bcd60e51b81526020600482015260146024820152732330b4b632b2103a379039b2b7321022ba3432b960611b6044820152606401610211565b50610ac1565b610ac16001600160a01b0389163389610b27565b876001600160a01b0316896001600160a01b03167fea368a40e9570069bb8e6511d668293ad2e1f03b0d982431fd223de9f3b70ca689604051610b0691815260200190565b60405180910390a38695505050505050610b206001600055565b9392505050565b6040516001600160a01b03831660248201526044810182905261049790849063a9059cbb60e01b906064015b60408051601f198184030181529190526020810180516001600160e01b03166001600160e01b03199093169290921790915261353b565b60026000541415610bdd5760405162461bcd60e51b815260206004820152601f60248201527f5265656e7472616e637947756172643a207265656e7472616e742063616c6c006044820152606401610211565b6002600055565b6040516001600160a01b0380851660248301528316604482015260648101829052610c1c9085906323b872dd60e01b90608401610b53565b50505050565b60006001600160a01b0385166000805160206142358339815191521415610c6257610c4c8361360d565b6000805160206142158339815191529450610c93565b6001600160a01b0384166000805160206142358339815191521415610c935760008051602061421583398151915293505b610cb28573e592427a0aece92de3edee1f18e0157c0586156485613672565b6000826001600160a01b031663ddca3f436040518163ffffffff1660e01b8152600401602060405180830381600087803b158015610cef57600080fd5b505af1158015610d03573d6000803e3d6000fd5b505050506040513d601f19601f82011682018060405250810190610d279190613eed565b60408051610100810182526001600160a01b03808a16825288166020820181905262ffffff84169282019290925230606082015242608082015260a08101879052600060c0820181905260e08201529192506000805160206142158339815191521415610e2c5760405163414bf38960e01b815273e592427a0aece92de3edee1f18e0157c058615649063414bf38990610dc5908490600401613f12565b602060405180830381600087803b158015610ddf57600080fd5b505af1158015610df3573d6000803e3d6000fd5b505050506040513d601f19601f82011682018060405250810190610e179190613e64565b9450610e228561369b565b8492505050610eba565b60405163414bf38960e01b815273e592427a0aece92de3edee1f18e0157c058615649063414bf38990610e63908490600401613f12565b602060405180830381600087803b158015610e7d57600080fd5b505af1158015610e91573d6000803e3d6000fd5b505050506040513d601f19601f82011682018060405250810190610eb59190613e64565b925050505b949350505050565b60006001600160a01b0384166000805160206142358339815191521415610f0257610eec8261360d565b6000805160206142158339815191529350610f33565b6001600160a01b0383166000805160206142358339815191521415610f335760008051602061421583398151915292505b610f5284731c6ca5dee97c8c368ca559892ccce2454c8c35c784613672565b6040805160028082526060820183526000926020830190803683370190505090508481600081518110610f8757610f87613e4e565b60200260200101906001600160a01b031690816001600160a01b0316815250508381600181518110610fbb57610fbb613e4e565b6001600160a01b03928316602091820292909201015260609085166000805160206142158339815191521415611091576040516338ed173960e01b8152731c6ca5dee97c8c368ca559892ccce2454c8c35c7906338ed17399061102b908790600090879030904290600401613f7b565b600060405180830381600087803b15801561104557600080fd5b505af1158015611059573d6000803e3d6000fd5b505050506040513d6000823e601f3d908101601f191682016040526110819190810190613fec565b905061108c8461369b565b61112a565b6040516338ed173960e01b8152731c6ca5dee97c8c368ca559892ccce2454c8c35c7906338ed1739906110d1908790600090879030904290600401613f7b565b600060405180830381600087803b1580156110eb57600080fd5b505af11580156110ff573d6000803e3d6000fd5b505050506040513d6000823e601f3d908101601f191682016040526111279190810190613fec565b90505b8060018151811061113d5761113d613e4e565b6020026020010151925050509392505050565b60405163c661065760e01b8152600060048201819052908290829081906001600160a01b0384169063c66106579060240160206040518083038186803b15801561119957600080fd5b505afa1580156111ad573d6000803e3d6000fd5b505050506040513d601f19601f820116820180604052508101906111d1919061407d565b6001600160a01b0316886001600160a01b0316148015611279575060405163c661065760e01b8152600160048201526001600160a01b0384169063c66106579060240160206040518083038186803b15801561122c57600080fd5b505afa158015611240573d6000803e3d6000fd5b505050506040513d601f19601f82011682018060405250810190611264919061407d565b6001600160a01b0316876001600160a01b0316145b1561128a57506001905060006113f4565b60405163c661065760e01b8152600160048201526001600160a01b0384169063c66106579060240160206040518083038186803b1580156112ca57600080fd5b505afa1580156112de573d6000803e3d6000fd5b505050506040513d601f19601f82011682018060405250810190611302919061407d565b6001600160a01b0316886001600160a01b03161480156113aa575060405163c661065760e01b8152600060048201526001600160a01b0384169063c66106579060240160206040518083038186803b15801561135d57600080fd5b505afa158015611371573d6000803e3d6000fd5b505050506040513d601f19601f82011682018060405250810190611395919061407d565b6001600160a01b0316876001600160a01b0316145b156113bb57506000905060016113f4565b60405162461bcd60e51b815260206004820152600e60248201526d696e76616c696420746f6b656e7360901b6044820152606401610211565b6001600160a01b03881660008051602061423583398151915214156114b357604051630f7c084960e21b8152600f82810b600483015283900b602482015260448101879052600060648201526001600160a01b03841690633df021249088906084015b6020604051808303818588803b15801561147057600080fd5b505af1158015611484573d6000803e3d6000fd5b50505050506040513d601f19601f820116820180604052508101906114a99190613e64565b9350505050610eba565b6114be888688613672565b604051630f7c084960e21b8152600f82810b600483015283900b602482015260448101879052600060648201526001600160a01b03841690633df02124906084015b602060405180830381600087803b15801561151a57600080fd5b505af115801561152e573d6000803e3d6000fd5b505050506040513d601f19601f820116820180604052508101906114a99190613e64565b60405163c661065760e01b8152600060048201819052908290829081906001600160a01b0384169063c66106579060240160206040518083038186803b15801561159b57600080fd5b505afa1580156115af573d6000803e3d6000fd5b505050506040513d601f19601f820116820180604052508101906115d3919061407d565b6001600160a01b0316886001600160a01b031614801561167b575060405163c661065760e01b8152600160048201526001600160a01b0384169063c66106579060240160206040518083038186803b15801561162e57600080fd5b505afa158015611642573d6000803e3d6000fd5b505050506040513d601f19601f82011682018060405250810190611666919061407d565b6001600160a01b0316876001600160a01b0316145b1561168c57506001905060006117b9565b60405163c661065760e01b8152600160048201526001600160a01b0384169063c66106579060240160206040518083038186803b1580156116cc57600080fd5b505afa1580156116e0573d6000803e3d6000fd5b505050506040513d601f19601f82011682018060405250810190611704919061407d565b6001600160a01b0316886001600160a01b03161480156117ac575060405163c661065760e01b8152600060048201526001600160a01b0384169063c66106579060240160206040518083038186803b15801561175f57600080fd5b505afa158015611773573d6000803e3d6000fd5b505050506040513d601f19601f82011682018060405250810190611797919061407d565b6001600160a01b0316876001600160a01b0316145b156113bb57506000905060015b60405163c661065760e01b815260048101829052600080516020614235833981519152906001600160a01b0385169063c66106579060240160206040518083038186803b15801561180957600080fd5b505afa15801561181d573d6000803e3d6000fd5b505050506040513d601f19601f82011682018060405250810190611841919061407d565b6001600160a01b0316141561189457604051630b68372160e31b8152600481018290526024810183905260448101879052600060648201526001600160a01b03841690635b41b908908890608401611457565b61189f888688613672565b604051630b68372160e31b8152600481018290526024810183905260448101879052600060648201526001600160a01b03841690635b41b90890608401611500565b6000816001600160a01b03861660008051602061423583398151915214156119225761190c8461360d565b6000805160206142158339815191529550611953565b6001600160a01b03851660008051602061423583398151915214156119535760008051602061421583398151915294505b60008060005b6003811015611aa25760405163c661065760e01b8152600481018290526001600160a01b0385169063c66106579060240160206040518083038186803b1580156119a257600080fd5b505afa1580156119b6573d6000803e3d6000fd5b505050506040513d601f19601f820116820180604052508101906119da919061407d565b6001600160a01b0316896001600160a01b031614156119fb57809150611a90565b60405163c661065760e01b8152600481018290526001600160a01b0385169063c66106579060240160206040518083038186803b158015611a3b57600080fd5b505afa158015611a4f573d6000803e3d6000fd5b505050506040513d601f19601f82011682018060405250810190611a73919061407d565b6001600160a01b0316886001600160a01b03161415611a90578092505b80611a9a81613e93565b915050611959565b50611aae888688613672565b6040516370a0823160e01b81523060048201526000906001600160a01b038916906370a082319060240160206040518083038186803b158015611af057600080fd5b505afa158015611b04573d6000803e3d6000fd5b505050506040513d601f19601f82011682018060405250810190611b289190613e64565b604051630b68372160e31b8152600481018490526024810185905260448101899052600060648201529091506001600160a01b03851690635b41b90890608401600060405180830381600087803b158015611b8257600080fd5b505af1158015611b96573d6000803e3d6000fd5b50506040516370a0823160e01b81523060048201528392506001600160a01b038b1691506370a082319060240160206040518083038186803b158015611bdb57600080fd5b505afa158015611bef573d6000803e3d6000fd5b505050506040513d601f19601f82011682018060405250810190611c139190613e64565b611c1d919061409a565b96506001600160a01b0388166000805160206142158339815191521415611c4757611c478761369b565b5094979650505050505050565b6000816001600160a01b0386166000805160206142358339815191521415611c9557611c7f8461360d565b6000805160206142158339815191529550611cc6565b6001600160a01b0385166000805160206142358339815191521415611cc65760008051602061421583398151915294505b611cd1868486613672565b60405163c661065760e01b81526000600482018190529081906001600160a01b0384169063c66106579060240160206040518083038186803b158015611d1657600080fd5b505afa158015611d2a573d6000803e3d6000fd5b505050506040513d601f19601f82011682018060405250810190611d4e919061407d565b6001600160a01b0316886001600160a01b0316148015611df6575060405163c661065760e01b8152600160048201526001600160a01b0384169063c66106579060240160206040518083038186803b158015611da957600080fd5b505afa158015611dbd573d6000803e3d6000fd5b505050506040513d601f19601f82011682018060405250810190611de1919061407d565b6001600160a01b0316876001600160a01b0316145b15611e075750600190506000611f34565b60405163c661065760e01b8152600160048201526001600160a01b0384169063c66106579060240160206040518083038186803b158015611e4757600080fd5b505afa158015611e5b573d6000803e3d6000fd5b505050506040513d601f19601f82011682018060405250810190611e7f919061407d565b6001600160a01b0316886001600160a01b0316148015611f27575060405163c661065760e01b8152600060048201526001600160a01b0384169063c66106579060240160206040518083038186803b158015611eda57600080fd5b505afa158015611eee573d6000803e3d6000fd5b505050506040513d601f19601f82011682018060405250810190611f12919061407d565b6001600160a01b0316876001600160a01b0316145b156113bb57506000905060015b6001600160a01b0387166000805160206142158339815191521415611fff5760405163394747c560e01b815260048101829052602481018390526044810187905260006064820181905260848201526001600160a01b0384169063394747c59060a401602060405180830381600087803b158015611fb157600080fd5b505af1158015611fc5573d6000803e3d6000fd5b505050506040513d601f19601f82011682018060405250810190611fe99190613e64565b9550611ff48661369b565b859350505050610eba565b60405163394747c560e01b815260048101829052602481018390526044810187905260006064820181905260848201526001600160a01b0384169063394747c59060a401611500565b60405163c661065760e01b8152600060048201819052908290829081906001600160a01b0384169063c66106579060240160206040518083038186803b15801561209157600080fd5b505afa1580156120a5573d6000803e3d6000fd5b505050506040513d601f19601f820116820180604052508101906120c9919061407d565b6001600160a01b0316886001600160a01b031614156120f5576120ed888688613672565b50600061218b565b60405163c661065760e01b8152600060048201526001600160a01b0384169063c66106579060240160206040518083038186803b15801561213557600080fd5b505afa158015612149573d6000803e3d6000fd5b505050506040513d601f19601f8201168201806040525081019061216d919061407d565b6001600160a01b0316876001600160a01b031614156113bb57600091505b73bebc44782c7db0a1a60cb6fe97d0b483032ff1c760005b600381121561233957896001600160a01b0316826001600160a01b031663c66106576121ce846136fd565b6040518263ffffffff1660e01b81526004016121ec91815260200190565b60206040518083038186803b15801561220457600080fd5b505afa158015612218573d6000803e3d6000fd5b505050506040513d601f19601f8201168201806040525081019061223c919061407d565b6001600160a01b03161415612271576122568a888a613672565b61225f81613753565b61226a9060016140b1565b9250612327565b886001600160a01b0316826001600160a01b031663c6610657612293846136fd565b6040518263ffffffff1660e01b81526004016122b191815260200190565b60206040518083038186803b1580156122c957600080fd5b505afa1580156122dd573d6000803e3d6000fd5b505050506040513d601f19601f82011682018060405250810190612301919061407d565b6001600160a01b031614156123275761231981613753565b6123249060016140b1565b93505b8061233181614100565b9150506121a3565b50604051635320bf6b60e11b8152600f83810b600483015284900b602482015260448101889052600060648201526001600160a01b0385169063a6417ed690608401602060405180830381600087803b15801561239557600080fd5b505af11580156123a9573d6000803e3d6000fd5b505050506040513d601f19601f820116820180604052508101906123cd9190613e64565b9998505050505050505050565b60405163c661065760e01b8152600060048201819052908290829081906001600160a01b0384169063c66106579060240160206040518083038186803b15801561242357600080fd5b505afa158015612437573d6000803e3d6000fd5b505050506040513d601f19601f8201168201806040525081019061245b919061407d565b6001600160a01b0316886001600160a01b031614156124875761247f888688613672565b50600061251d565b60405163c661065760e01b8152600060048201526001600160a01b0384169063c66106579060240160206040518083038186803b1580156124c757600080fd5b505afa1580156124db573d6000803e3d6000fd5b505050506040513d601f19601f820116820180604052508101906124ff919061407d565b6001600160a01b0316876001600160a01b031614156113bb57600091505b73dcef968d416a41cdac0ed8702fac8128a64241a260005b600281121561233957816001600160a01b031663c6610657612556836136fd565b6040518263ffffffff1660e01b815260040161257491815260200190565b60206040518083038186803b15801561258c57600080fd5b505afa1580156125a0573d6000803e3d6000fd5b505050506040513d601f19601f820116820180604052508101906125c4919061407d565b6001600160a01b03168a6001600160a01b03161415612603576125e88a888a613672565b6125f181613753565b6125fc9060016140b1565b92506126b9565b816001600160a01b031663c661065761261b836136fd565b6040518263ffffffff1660e01b815260040161263991815260200190565b60206040518083038186803b15801561265157600080fd5b505afa158015612665573d6000803e3d6000fd5b505050506040513d601f19601f82011682018060405250810190612689919061407d565b6001600160a01b0316896001600160a01b031614156126b9576126ab81613753565b6126b69060016140b1565b93505b806126c381614100565b915050612535565b6000818180805b600381121561283757836001600160a01b031663c66106576126f3836136fd565b6040518263ffffffff1660e01b815260040161271191815260200190565b60206040518083038186803b15801561272957600080fd5b505afa15801561273d573d6000803e3d6000fd5b505050506040513d601f19601f82011682018060405250810190612761919061407d565b6001600160a01b0316896001600160a01b0316141561278257809150612825565b836001600160a01b031663c661065761279a836136fd565b6040518263ffffffff1660e01b81526004016127b891815260200190565b60206040518083038186803b1580156127d057600080fd5b505afa1580156127e4573d6000803e3d6000fd5b505050506040513d601f19601f82011682018060405250810190612808919061407d565b6001600160a01b0316886001600160a01b03161415612825578092505b8061282f81614100565b9150506126d2565b50612843888688613672565b6040516370a0823160e01b81523060048201526000906001600160a01b038916906370a082319060240160206040518083038186803b15801561288557600080fd5b505afa158015612899573d6000803e3d6000fd5b505050506040513d601f19601f820116820180604052508101906128bd9190613e64565b9050836001600160a01b0316633df021246128d784613753565b6128e086613753565b6040516001600160e01b031960e085901b168152600f92830b6004820152910b6024820152604481018a9052600060648201526084015b600060405180830381600087803b15801561293157600080fd5b505af1158015612945573d6000803e3d6000fd5b50506040516370a0823160e01b81523060048201528392506001600160a01b038b1691506370a082319060240160206040518083038186803b15801561298a57600080fd5b505afa15801561299e573d6000803e3d6000fd5b505050506040513d601f19601f820116820180604052508101906129c29190613e64565b6123cd919061409a565b6000818180805b600381600f0b1215612b255760405163046e8dd760e31b8152600f82900b60048201526001600160a01b038516906323746eb89060240160206040518083038186803b158015612a2257600080fd5b505afa158015612a36573d6000803e3d6000fd5b505050506040513d601f19601f82011682018060405250810190612a5a919061407d565b6001600160a01b0316896001600160a01b03161415612a7b57809150612b13565b60405163046e8dd760e31b8152600f82900b60048201526001600160a01b038516906323746eb89060240160206040518083038186803b158015612abe57600080fd5b505afa158015612ad2573d6000803e3d6000fd5b505050506040513d601f19601f82011682018060405250810190612af6919061407d565b6001600160a01b0316886001600160a01b03161415612b13578092505b80612b1d81614119565b9150506129d3565b50612b31888688613672565b6040516370a0823160e01b81523060048201526000906001600160a01b038916906370a082319060240160206040518083038186803b158015612b7357600080fd5b505afa158015612b87573d6000803e3d6000fd5b505050506040513d601f19601f82011682018060405250810190612bab9190613e64565b604051630f7c084960e21b8152600f84810b600483015285900b602482015260448101899052600060648201529091506001600160a01b03851690633df0212490608401612917565b6000818180805b600481600f0b1215612b255760405163046e8dd760e31b8152600f82900b60048201526001600160a01b038516906323746eb89060240160206040518083038186803b158015612c4a57600080fd5b505afa158015612c5e573d6000803e3d6000fd5b505050506040513d601f19601f82011682018060405250810190612c82919061407d565b6001600160a01b0316896001600160a01b03161415612ca357809150612d3b565b60405163046e8dd760e31b8152600f82900b60048201526001600160a01b038516906323746eb89060240160206040518083038186803b158015612ce657600080fd5b505afa158015612cfa573d6000803e3d6000fd5b505050506040513d601f19601f82011682018060405250810190612d1e919061407d565b6001600160a01b0316886001600160a01b03161415612d3b578092505b80612d4581614119565b915050612bfb565b6000816001600160a01b0386166000805160206142358339815191521415612d8e57612d788461360d565b6000805160206142158339815191529550612dbf565b6001600160a01b0385166000805160206142358339815191521415612dbf5760008051602061421583398151915294505b60405163c661065760e01b815260006004820181905273dcef968d416a41cdac0ed8702fac8128a64241a29181906001600160a01b0385169063c66106579060240160206040518083038186803b158015612e1957600080fd5b505afa158015612e2d573d6000803e3d6000fd5b505050506040513d601f19601f82011682018060405250810190612e51919061407d565b6001600160a01b0316896001600160a01b031614156130ff57612e75898789613672565b604051630b68372160e31b8152600060048201819052600160248301526044820189905260648201526001600160a01b03851690635b41b90890608401602060405180830381600087803b158015612ecc57600080fd5b505af1158015612ee0573d6000803e3d6000fd5b505050506040513d601f19601f82011682018060405250810190612f049190613e64565b60405163c661065760e01b8152600060048201529092506001600160a01b0384169063c66106579060240160206040518083038186803b158015612f4757600080fd5b505afa158015612f5b573d6000803e3d6000fd5b505050506040513d601f19601f82011682018060405250810190612f7f919061407d565b6001600160a01b0316886001600160a01b03161415612fa057506000613035565b60405163c661065760e01b8152600160048201526001600160a01b0384169063c66106579060240160206040518083038186803b158015612fe057600080fd5b505afa158015612ff4573d6000803e3d6000fd5b505050506040513d601f19601f82011682018060405250810190613018919061407d565b6001600160a01b0316886001600160a01b03161415613035575060015b613068733175df0976dfa876431c2e9ee6bc45b65d3473cc73dcef968d416a41cdac0ed8702fac8128a64241a284613672565b604051630d2680e960e11b815260048101839052600f82900b6024820152600060448201526001600160a01b03841690631a4d01d2906064015b602060405180830381600087803b1580156130bc57600080fd5b505af11580156130d0573d6000803e3d6000fd5b505050506040513d601f19601f820116820180604052508101906130f49190613e64565b945050505050610eba565b60405163c661065760e01b8152600060048201526001600160a01b0385169063c66106579060240160206040518083038186803b15801561313f57600080fd5b505afa158015613153573d6000803e3d6000fd5b505050506040513d601f19601f82011682018060405250810190613177919061407d565b6001600160a01b0316886001600160a01b031614156113bb576131af8973dcef968d416a41cdac0ed8702fac8128a64241a289613672565b60405163c661065760e01b8152600060048201526001600160a01b0384169063c66106579060240160206040518083038186803b1580156131ef57600080fd5b505afa158015613203573d6000803e3d6000fd5b505050506040513d601f19601f82011682018060405250810190613227919061407d565b6001600160a01b0316896001600160a01b031614156132da576040805180820182528881526000602082018190529151630b4c7e4d60e01b81526001600160a01b03861692630b4c7e4d926132819290919060040161413f565b602060405180830381600087803b15801561329b57600080fd5b505af11580156132af573d6000803e3d6000fd5b505050506040513d601f19601f820116820180604052508101906132d39190613e64565b91506134da565b60405163c661065760e01b8152600160048201526001600160a01b0384169063c66106579060240160206040518083038186803b15801561331a57600080fd5b505afa15801561332e573d6000803e3d6000fd5b505050506040513d601f19601f82011682018060405250810190613352919061407d565b6001600160a01b0316896001600160a01b031614156134da57604051636eb1769f60e11b815230600482015273dcef968d416a41cdac0ed8702fac8128a64241a2602482015287906001600160a01b038b169063dd62ed3e9060440160206040518083038186803b1580156133c657600080fd5b505afa1580156133da573d6000803e3d6000fd5b505050506040513d601f19601f820116820180604052508101906133fe9190613e64565b10156134445760405162461bcd60e51b81526020600482015260156024820152746e6f7420656e6f75676820616c6c6f77616e63653160581b6044820152606401610211565b6040805180820182526000808252602082018a90529151630b4c7e4d60e01b81526001600160a01b03861692630b4c7e4d926134859290919060040161413f565b602060405180830381600087803b15801561349f57600080fd5b505af11580156134b3573d6000803e3d6000fd5b505050506040513d601f19601f820116820180604052508101906134d79190613e64565b91505b6134f9733175df0976dfa876431c2e9ee6bc45b65d3473cc8784613672565b604051630b68372160e31b8152600160048201526000602482018190526044820184905260648201526001600160a01b03851690635b41b908906084016130a2565b6000613590826040518060400160405280602081526020017f5361666545524332303a206c6f772d6c6576656c2063616c6c206661696c6564815250856001600160a01b03166137bc9092919063ffffffff16565b80519091501561049757808060200190518101906135ae9190614177565b6104975760405162461bcd60e51b815260206004820152602a60248201527f5361666545524332303a204552433230206f7065726174696f6e20646964206e6044820152691bdd081cdd58d8d9595960b21b6064820152608401610211565b6000805160206142158339815191526001600160a01b031663d0e30db0826040518263ffffffff1660e01b81526004016000604051808303818588803b15801561365657600080fd5b505af115801561366a573d6000803e3d6000fd5b505050505050565b6136876001600160a01b0384168360006137cb565b6104976001600160a01b03841683836137cb565b604051632e1a7d4d60e01b81526004810182905260008051602061421583398151915290632e1a7d4d90602401600060405180830381600087803b1580156136e257600080fd5b505af11580156136f6573d6000803e3d6000fd5b5050505050565b60008082121561374f5760405162461bcd60e51b815260206004820181905260248201527f53616665436173743a2076616c7565206d75737420626520706f7369746976656044820152606401610211565b5090565b80600f81900b81146137b75760405162461bcd60e51b815260206004820152602760248201527f53616665436173743a2076616c756520646f65736e27742066697420696e20316044820152663238206269747360c81b6064820152608401610211565b919050565b6060610eba84846000856138ef565b8015806138545750604051636eb1769f60e11b81523060048201526001600160a01b03838116602483015284169063dd62ed3e9060440160206040518083038186803b15801561381a57600080fd5b505afa15801561382e573d6000803e3d6000fd5b505050506040513d601f19601f820116820180604052508101906138529190613e64565b155b6138bf5760405162461bcd60e51b815260206004820152603660248201527f5361666545524332303a20617070726f76652066726f6d206e6f6e2d7a65726f60448201527520746f206e6f6e2d7a65726f20616c6c6f77616e636560501b6064820152608401610211565b6040516001600160a01b03831660248201526044810182905261049790849063095ea7b360e01b90606401610b53565b6060824710156139505760405162461bcd60e51b815260206004820152602660248201527f416464726573733a20696e73756666696369656e742062616c616e636520666f6044820152651c8818d85b1b60d21b6064820152608401610211565b600080866001600160a01b0316858760405161396c91906141c5565b60006040518083038185875af1925050503d80600081146139a9576040519150601f19603f3d011682016040523d82523d6000602084013e6139ae565b606091505b5091509150610eb58783838760608315613a26578251613a1f576001600160a01b0385163b613a1f5760405162461bcd60e51b815260206004820152601d60248201527f416464726573733a2063616c6c20746f206e6f6e2d636f6e74726163740000006044820152606401610211565b5081610eba565b610eba8383815115613a3b5781518083602001fd5b8060405162461bcd60e51b815260040161021191906141e1565b5080546000825590600052602060002090810190613a739190613b12565b50565b828054828255906000526020600020908101928215613ab1579160200282015b82811115613ab1578251825591602001919060010190613a96565b5061374f929150613b12565b828054828255906000526020600020908101928215613ab1579160200282015b82811115613ab157825182546001600160a01b0319166001600160a01b03909116178255602090920191600190910190613add565b5b8082111561374f5760008155600101613b13565b6001600160a01b0381168114613a7357600080fd5b80356137b781613b27565b600060208284031215613b5957600080fd5b8135610b2081613b27565b60008060408385031215613b7757600080fd5b8235613b8281613b27565b91506020830135613b9281613b27565b809150509250929050565b634e487b7160e01b600052604160045260246000fd5b604051601f8201601f1916810167ffffffffffffffff81118282101715613bdc57613bdc613b9d565b604052919050565b600067ffffffffffffffff821115613bfe57613bfe613b9d565b5060051b60200190565b600082601f830112613c1957600080fd5b81356020613c2e613c2983613be4565b613bb3565b82815260059290921b84018101918181019086841115613c4d57600080fd5b8286015b84811015613c71578035613c6481613b27565b8352918301918301613c51565b509695505050505050565b60008060408385031215613c8f57600080fd5b823567ffffffffffffffff811115613ca657600080fd5b613cb285828601613c08565b9250506020830135613b9281613b27565b600082601f830112613cd457600080fd5b81356020613ce4613c2983613be4565b82815260059290921b84018101918181019086841115613d0357600080fd5b8286015b84811015613c715780358352918301918301613d07565b60008060008060008060c08789031215613d3757600080fd5b613d4087613b3c565b9550613d4e60208801613b3c565b9450604087013567ffffffffffffffff80821115613d6b57600080fd5b613d778a838b01613cc3565b95506060890135915080821115613d8d57600080fd5b613d998a838b01613c08565b94506080890135915080821115613daf57600080fd5b613dbb8a838b01613c08565b935060a0890135915080821115613dd157600080fd5b50613dde89828a01613c08565b9150509295509295509295565b600080600060608486031215613e0057600080fd5b8335613e0b81613b27565b92506020840135613e1b81613b27565b929592945050506040919091013590565b6020808252600890820152672737ba27bbb732b960c11b604082015260600190565b634e487b7160e01b600052603260045260246000fd5b600060208284031215613e7657600080fd5b5051919050565b634e487b7160e01b600052601160045260246000fd5b6000600019821415613ea757613ea7613e7d565b5060010190565b815160009082906020808601845b83811015613ee15781516001600160a01b031685529382019390820190600101613ebc565b50929695505050505050565b600060208284031215613eff57600080fd5b815162ffffff81168114610b2057600080fd5b81516001600160a01b03908116825260208084015182169083015260408084015162ffffff16908301526060808401518216908301526080808401519083015260a0838101519083015260c0808401519083015260e09283015116918101919091526101000190565b600060a082018783526020878185015260a0604085015281875180845260c086019150828901935060005b81811015613fcb5784516001600160a01b031683529383019391830191600101613fa6565b50506001600160a01b03969096166060850152505050608001529392505050565b60006020808385031215613fff57600080fd5b825167ffffffffffffffff81111561401657600080fd5b8301601f8101851361402757600080fd5b8051614035613c2982613be4565b81815260059190911b8201830190838101908783111561405457600080fd5b928401925b8284101561407257835182529284019290840190614059565b979650505050505050565b60006020828403121561408f57600080fd5b8151610b2081613b27565b6000828210156140ac576140ac613e7d565b500390565b600081600f0b83600f0b600082128260016001607f1b03038213811516156140db576140db613e7d565b8260016001607f1b03190382128116156140f7576140f7613e7d565b50019392505050565b60006001600160ff1b03821415613ea757613ea7613e7d565b600081600f0b60016001607f1b0381141561413657614136613e7d565b60010192915050565b60608101818460005b6002811015614167578151835260209283019290910190600101614148565b5050508260408301529392505050565b60006020828403121561418957600080fd5b81518015158114610b2057600080fd5b60005b838110156141b457818101518382015260200161419c565b83811115610c1c5750506000910152565b600082516141d7818460208701614199565b9190910192915050565b6020815260008251806020840152614200816040850160208701614199565b601f01601f1916919091016040019291505056fe000000000000000000000000c02aaa39b223fe8d0a0e5c4f27ead9083c756cc2000000000000000000000000eeeeeeeeeeeeeeeeeeeeeeeeeeeeeeeeeeeeeeeea264697066735822122012a64f72e176cb36f5ab374a76ec92434babdec4b04c9677d71b18491321e70264736f6c63430008080033",
        "linkReferences": {}
    },
    "methodIdentifiers": {
        "deleteRoute(address,address)": "1af55e1f",
        "owner()": "8da5cb5b",
        "rescue(address[],address)": "802a2b13",
        "rescueETH(address)": "04824e70",
        "routeExists(address,address)": "8304b734",
        "swap(address,address,uint256)": "df791e50",
        "updateOwner(address)": "880cdc31",
        "updateRoute(address,address,uint256[],address[],address[],address[])": "83587de1"
    },
    "id": 43
}